:100000000C942A000C9447000C9447000C94470071
:100010000C9447000C9447000C9447000C94470044
:100020000C9447000C9447000C9447000C94470034
:100030000C9447000C94F2030C9447000C94470076
:100040000C9447000C9447000C9447000C94470014
:100050000C94470011241FBECFE5D8E0DEBFCDBF12
:1000600013E0A0E6B0E0EAEBF0E102C005900D92EB
:10007000A430B107D9F718E0A4E0B3E001C01D92A5
:10008000AF35B107E1F70E94B0070C945B080C9400
:100090000000DC01FA0112C02F2F33278D9190E070
:1000A000E827F927F070EE0FFF1FE350FF4F019094
:1000B000F081E02DE227F327615070406115710552
:1000C00059F7CF010895DC01FA0112C02F2F332711
:1000D0008D9190E0E827F927F070EE0FFF1FE350B5
:1000E000FF4F0190F081E02DE227F327615070402F
:1000F0006115710559F780E0E85BF04F09F481E084
:1001000008950895813081F0813028F08230A9F07F
:10011000833021F51BC0662311F41ABA08956130AB
:10012000E9F48FEF8ABB0895662311F417BA089596
:100130006130A1F48FEF87BB0895662311F414BAE0
:100140000895613059F48FEF84BB0895662311F44C
:1001500011BA0895613011F48FEF81BB0895813099
:1001600049F0813028F0823039F0833041F406C004
:100170006BBB089568BB089565BB089562BB089585
:10018000813049F0813028F0823039F0833041F4F9
:1001900006C089B3089586B3089583B3089580B3E4
:1001A0000895482F662321F0613009F081C043C0D3
:1001B000883068F43AB3282F277081E090E002C0BD
:1001C000880F991F2A95E2F7809583238ABB842F95
:1001D0008850883068F437B3242F277081E090E08E
:1001E00002C0880F991F2A95E2F78095832387BB69
:1001F000842F8051883068F434B3242F277081E035
:1002000090E002C0880F991F2A95E2F7809583231A
:1002100084BB842F8851883008F04AC021B34770CE
:1002200081E090E002C0880F991F4A95E2F780951F
:10023000822381BB0895883060F48AB3942F97702D
:1002400021E030E002C0220F331F9A95E2F7822BA3
:100250008ABB842F8850883060F487B3942F9770BE
:1002600021E030E002C0220F331F9A95E2F7822B83
:1002700087BB842F8051883060F484B3942F9770AB
:1002800021E030E002C0220F331F9A95E2F7822B63
:1002900084BB842F8851883058F421B3477081E0A3
:1002A00090E002C0880F991F4A95E2F7282B21BBE6
:1002B0000895782F8830C0F42BB3482F50E0477052
:1002C000507081E090E0042E02C0880F991F0A94BC
:1002D000E2F780958223262F30E002C0220F331FE1
:1002E0004A95E2F7822B8BBB872F88508830C0F469
:1002F00028B3472F50E04770507081E090E0042E03
:1003000002C0880F991F0A94E2F780958223262F56
:1003100030E002C0220F331F4A95E2F7822B88BBE0
:10032000872F80518830C0F425B3472F50E04770A5
:10033000507081E090E0042E02C0880F991F0A944B
:10034000E2F780958223262F30E002C0220F331F70
:100350004A95E2F7822B85BB872F88518830C0F4FD
:1003600022B3472F50E04770507081E090E0042E98
:1003700002C0880F991F0A94E2F780958223262FE6
:1003800030E002C0220F331F4A95E2F7822B82BB76
:100390000895382F883058F489B390E0232F2770C0
:1003A00002C0959587952A95E2F7982F9170832F33
:1003B0008850883058F486B390E0232F277002C00D
:1003C000959587952A95E2F7982F9170832F805104
:1003D000883058F483B390E0232F277002C095959E
:1003E00087952A95E2F7982F9170832F885188304E
:1003F00050F480B390E0377002C0959587953A9598
:10040000E2F7982F9170892F0895109205031092AA
:100410000403109207031092060310920B0310922C
:100420000A03109209031092080390930D0380931E
:100430000C0310920F0310920E03109213031092EC
:100440001203109211031092100308950F931F933B
:10045000CF93DF93DC01EA0190931303809312039F
:1004600010920F0310920E03709311036093100308
:100470001616170644F480EC8C9381E090E090937C
:100480000F0380930E0340910E0350910F030CED68
:100490001BED9DED32C08881803C19F08B3D19F534
:1004A00011C04617570734F4FD01E40FF51F108300
:1004B0004F5F5F4F46175707FCF4FD01E40FF51F30
:1004C000008318C04617570734F4FD01E40FF51FE9
:1004D00080834F5F5F4F4617570774F4FD01E40FA9
:1004E000F51F908307C04617570734F4FD01E40F4A
:1004F000F51F80834F5F5F4F2196215030408FEF73
:100500002F3F380741F640930E0350930F034617D1
:10051000570754F4A40FB51F80EC8C934F5F5F4FC7
:1005200050930F0340930E0320910E0330910F035D
:100530006217730714F42FEF3FEFC901DF91CF91DA
:100540001F910F9108959C018091040390910503E0
:10055000892BB1F480910C0390910D03892B81F0CC
:1005600030930B0320930A037093090360930803ED
:1005700081E090E0909305038093040381E0089567
:1005800080E008958F929F92AF92BF92CF92DF92B8
:10059000EF92FF920F931F93CF93DF938C01EB01A8
:1005A00041E0C42ED12C33E0A32EB12C22E0E22E68
:1005B000F12C90EC892E8BED982E9DC0F801408196
:1005C00080910403909105038230910579F0833086
:1005D000910509F455C0019709F08BC0403C09F022
:1005E00088C010920703109206037AC0403C19F0AD
:1005F0004B3D61F526C06091060370910703161606
:100600001706D4F4E0910C03F0910D03309781F0BC
:1006100080910A0390910B03099590930B038093AB
:100620000A03892B29F0D0920503C092040304C069
:100630001092050310920403109207031092060310
:1006400058C0B0920503A092040353C02091060342
:100650003091070380910803909109032817390707
:100660000CF047C0E0910A03F0910B03E20FF31F77
:1006700040832F5F3F4F309307032093060339C019
:100680004C3D19F04D3D89F513C020910603309182
:10069000070380910803909109032817390704F58F
:1006A000E0910A03F0910B03E20FF31F808212C066
:1006B000209106033091070380910803909109036C
:1006C000281739076CF4E0910A03F0910B03E20F4D
:1006D000F31F90822F5F3F4F309307032093060351
:1006E000F0920503E092040304C0D0920503C09287
:1006F00004030F5F1F4F2197FFEFCF3FDF0709F084
:100700005DCFDF91CF911F910F91FF90EF90DF9020
:10071000CF90BF90AF909F908F9008955D9BFECF3C
:100720008CB908955F9BFECF8CB10895AC0120E099
:1007300030E070E009C05D9BFECFFA01E20FF31FCD
:1007400080818CB92F5F3F4F26173707A0F381E0D8
:1007500090E00895A0E0B0E005C0FD01E956FA4F31
:10076000808311965F9BFECF8CB190E08A3091051B
:10077000A1F75F9BFECF8CB190E08D30910569F7BA
:10078000A956BA4F8AE08C930895AC01579880918E
:100790001403882389F020E030E070E00AC0FA01F9
:1007A000E20FF31FD901AB5EBC4F8C9180832F5FAA
:1007B0003F4F2617370798F310921403579A08955E
:1007C000AC0120E030E070E009C05F9BFECF8CB14F
:1007D000FA01E20FF31F80832F5F3F4F2617370781
:1007E000A4F308951F920F920FB60F9211248F93C6
:1007F0009F93EF93FF93809114039CB1E82FF0E057
:10080000EB5EFC4F90838F5F80931403853110F073
:1008100010921403FF91EF919F918F910F900FBE53
:100820000F901F901895DC010D900020E9F71197AB
:10083000A81BB90B20E030E009C0FC01E20FF31F58
:10084000E0815D9BFECFECB92F5F3F4F2A173B073E
:10085000A0F3089588E160E00E94D10089E161E0A1
:100860000E94D10010BC88E089B988E98AB98FB7A5
:1008700080688FBF81E090E00895EF92FF920F9320
:100880001F93DF93CF93CDB7DEB764970FB6F8947D
:10089000DEBF0FBECDBF60911403062F10E07E01B6
:1008A0000894E11CF11CC7010E94C5030115110544
:1008B00021F0C701B8010E94C20264960FB6F894F5
:1008C000DEBF0FBECDBFCF91DF911F910F91FF9083
:1008D000EF9008950F931F93CF93DF93EC01009750
:1008E000B1F18C010E5F1F4F688179816E5F7F4F80
:1008F000C8014FEF5FEF0E944900809590952881D5
:100900003981FE01E20FF31F848395832C5F3F4FF3
:1009100081E393E066E672E0A8010E9426028C0162
:1009200018161906A4F4C0E0D0E080EC0E948E03F3
:100930002196C832D105C9F781E393E0602F0E9468
:100940009603181619061CF421E030E002C02FEFC0
:100950003FEFC901DF91CF911F910F9108950F9340
:100960001F938B011092290310922A0310922B03DC
:1009700010922C039093300380932F0370932E03D7
:1009800060932D0389ED94E00E940502C801029650
:1009900060E371E00E94A30288E160E00E94D10060
:1009A00089E161E00E94D1000E942A041F910F9109
:1009B0000895CF93DF93EB01643071057CF14FEF25
:1009C0005FEF0E9463008823B1F020912F033091E4
:1009D00030032115310511F1E0912D03F0912E0323
:1009E0002497D183C083CF01F901099590932E03F9
:1009F00080932D0313C08091290390912A03A09125
:100A00002B03B0912C030196A11DB11D80932903E6
:100A100090932A03A0932B03B0932C0380912D0372
:100A200090912E03009719F420E030E003C09C0160
:100A30002E5F3F4FC901DF91CF9108950E943D0481
:100A40000895CF93DF939C01FB01DA0180E180934D
:100A5000FD0581E08093FE054DEF55E084E290E0D6
:100A6000EA019A938A93AE01E90188818093FF0598
:100A70008981809300068A81809301068B8180930F
:100A80000206878580930306868580930406858504
:100A900080930506848580930606838580930706E8
:100AA00082858093080681858093090680858093DE
:100AB0000A06878180930B06868180930C068581C8
:100AC00080930D06848180930E06838180930F06A8
:100AD00082818093100681818093110680818093AA
:100AE00012061F968C911F97809313061E968C9169
:100AF0001E97809314061D968C911D978093150662
:100B00001C968C911C97809316061B968C911B97B4
:100B1000809317061A968C911A9780931806199647
:100B20008C9119978093190618968C911897809339
:100B30001A0617968C91179780931B0616968C9120
:100B4000169780931C0615968C91159780931D0619
:100B500014968C91149780931E0613968C9113977C
:100B600080931F0612968C911297809320061196FF
:100B70008C911197809321068C9180932206CA0153
:100B80000E946A04DF91CF91089581E08093FD0572
:100B90008093FE05EDEFF5E012921292CF010E94D4
:100BA0006A0408950F931F93982F9A0181E04C32A5
:100BB00058071CF02FEF3FEF1BC080E18093FD052D
:100BC00081E18093FE052F5F3F4F3093FC0520931A
:100BD000FB05215030409093FF0500E016E0C8016E
:100BE000A9010E940D08C80105970E946A049C0192
:100BF000C9011F910F9108950F931F93982F9A0188
:100C000081E04C3258071CF02FEF3FEF1BC080E112
:100C10008093FD058DE08093FE052F5F3F4F30935D
:100C2000FC052093FB05215030409093FF0500E028
:100C300016E0C801A9010E940D08C80105970E948D
:100C40006A049C01C9011F910F9108958DE296E0FD
:100C50006DE277E00E94AF040895EF92FF920F9348
:100C60001F93DF93CF9300D0CDB7DEB78C01FC018B
:100C70008281813021F0803109F06BC016C0F8010B
:100C800083817E010894E11CF11C823039F481E0FB
:100C900090E00E94D30680E690E032C081E090E0D0
:100CA0000E94D3068AE790E040C0F80183818E302D
:100CB00039F07E010894E11CF11C823181F51AC0E3
:100CC00081E090E00E94D30686E990E00E949007C0
:100CD00081E090E060E070E00E944A078EE690E0DC
:100CE0000E949007F801848190E00E941608CE01CE
:100CF00001962DC081E090E00E94D30686EA90E044
:100D00000E94900781E090E060E070E00E944A0756
:100D10008EE690E00E949007F801848114C081E083
:100D200090E00E94D30686EB90E00E94900781E05D
:100D300090E060E070E00E944A078BE890E00E943B
:100D40009007F801838190E00E941608C7010E9475
:100D500090078DE297E00F900F90CF91DF911F9158
:100D60000F91FF90EF9008952CE32CBF23B72A60DA
:100D700023BF29E130E040E050E00E94EE0720E090
:100D800030E040E050E0E8B7E1FF06C0E260E8BFD5
:100D90002F5F3F4F4F4F5F4F2617370748075907C1
:100DA00091F712BE08951F93182F28B3297F8BB394
:100DB000912F907F8F70982B9BBB286028BB65E09C
:100DC00070E080E090E00E94B40698B38BB3129577
:100DD000107F8F70812B8BBB986098BB65E070E0B3
:100DE00080E090E00E94B406C3981F9108958AB3F2
:100DF000806F8ABB87B38F6087BB68E270E080E05A
:100E000090E00E94B40682E00E94D30665E070E0A4
:100E100080E090E00E94B40688E20E94D30665E07C
:100E200070E080E090E00E94B4068CE00E94D3065F
:100E300065E070E080E090E00E94B40681E00E94EE
:100E4000D3066AE070E080E090E00E94B406089566
:100E5000DF93CF9300D000D0CDB7DEB790E8998371
:100E600090EC9A8394E99B8394ED9C83FE01E60FBA
:100E7000F11D9181890F0E94D30661E070E080E04E
:100E800090E00E94B4060F900F900F900F90CF91BA
:100E9000DF910895DF93CF9300D000D0CDB7DEB7B8
:100EA00090E8998390EC9A8394E99B8394ED9C83DA
:100EB000FE01E80FF11D8181860F0E94D30661E0DB
:100EC00070E080E090E00E94B4060F900F900F90C9
:100ED0000F90CF91DF9108951F93182F28B3217F92
:100EE0008BB3912F907F8F70982B9BBB2A6028BB70
:100EF00065E070E080E090E00E94B40698B38BB3A8
:100F00001295107F8F70812B8BBB986098BB65E02A
:100F100070E080E090E00E94B406C3981F910895AD
:100F2000FF920F931F93CF93DF938C01FF2406C092
:100F3000C00FD11F88810E946C07F394CF2DD0E0A1
:100F4000F80101900020E9F73197E01BF10BCE1773
:100F5000DF0770F3DF91CF911F910F91FF900895FC
:100F6000DF92EF92FF920F931F93DF93CF93CDB752
:100F7000DEB72E970FB6F894DEBF0FBECDBF0E942E
:100F80002606DE011196E3ECF0E08EE001900D9272
:100F90008150E1F78E010F5F1F4FF8010190002093
:100FA000E9F73197E01BF10BDE2EEF2E89ED90E093
:100FB0006DEE70E04DED50E00E942105F02E012F06
:100FC00080E26F2D702F4D2D5E2D0E94FC0560E19B
:100FD00077E280E090E00E94B406F2CF629FD001F9
:100FE000739FF001829FE00DF11D649FE00DF11DE4
:100FF000929FF00D839FF00D749FF00D659FF00D93
:101000009927729FB00DE11DF91F639FB00DE11D7F
:10101000F91FBD01CF0111240895FB01DC0102C0BD
:1010200001900D9241505040D8F70895FB019F0167
:10103000E8944230C4F04532B4F44A3029F497FBC6
:101040001EF4909581959F4F642F77270E94470843
:10105000805D8A330CF0895D8193CB010097A1F705
:1010600016F45DE251931082C9010C943708DC013B
:10107000FC01672F71917723E1F7329704C07C91CF
:101080006D9370836291AE17BF07C8F30895AA1BD2
:10109000BB1B51E107C0AA1FBB1FA617B70710F063
:1010A000A61BB70B881F991F5A95A9F78095909595
:0A10B000BC01CD010895F894FFCFB4
:1010BA0050696E6720526573706F6E736500537462
:1010CA0061747573203A203078004465764D676DF7
:1010DA0074206D73672072656376004D73674944A7
:1010EA00203A2030780053656E6420552D4461748F
:1010FA0061205265730053656E6420432D44617408
:10110A00612052657300534150206D7367207265E8
:10111A006376004D6F68616D6564205A6179656414
:10112A000035FFA95534A41DCFE2166E01EEF1BBBE
:10113A00143E25604FF8A8860933282CA2BF36D161
:10114A00FAB89C841D74AE03C3A058DCDE00008983
:10115A001112239B322446AD573665BF74488CC1A1
:10116A009D5AAFD3BE6CCAE5DB7EE9F7F881100859
:10117A000193331A22A5562C47B7753E64C99C4081
:10118A008DDBBF52AEEDDA64CBFFF976E802218B34
:10119A0030100299132667AF763444BD554AADC361
:1011AA00BC588ED19F6EEBE7FA7CC8F5D983310A19
:1011BA002091121803A7772E66B5543C45CBBD4241
:1011CA00ACD99E508FEFFB66EAFDD874C904428DF4
:1011DA005316619F702004A9153227BB364CCEC521
:1011EA00DF5EEDD7FC6888E1997AABF3BA85520CD9
:1011FA004397711E60A1142805B3373A26CDDE4401
:10120A00CFDFFD56ECE9986089FBBB72AA06638FB3
:10121A007214409D512225AB343006B9174EEFC7E0
:10122A00FE5CCCD5DD6AA9E3B8788AF19B87730E98
:10123A006295501C41A3352A24B1163807CFFF46C0
:10124A00EEDDDC54CDEBB962A8F99A708B08848183
:10125A00951AA793B62CC2A5D33EE1B7F04008C9A8
:10126A0019522BDB3A644EED5F766DFF7C89940050
:10127A00859BB712A6ADD224C3BFF136E0C1184888
:10128A0009D33B5A2AE55E6C4FF77D7E6C0AA5832B
:10129A00B4188691972EE3A7F23CC0B5D14229CB68
:1012AA0038500AD91B666FEF7E744CFD5D8BB50210
:1012BA00A499961087AFF326E2BDD034C1C3394A48
:1012CA0028D11A580BE77F6E6EF55C7C4D0CC685EB
:1012DA00D71EE597F42880A1913AA3B3B2444ACD28
:1012EA005B5669DF78600CE91D722FFB3E8DD604D0
:1012FA00C79FF516E4A9902081BBB332A2C55A4C08
:10130A004BD7795E68E11C680DF33F7A2E0EE787AA
:10131A00F61CC495D52AA1A3B03882B193466BCFE7
:10132A007A5448DD59622DEB3C700EF91F8FF7068F
:10133A00E69DD414C5ABB122A0B9923083C77B4EC7
:10134A006AD5585C49E33D6A2CF11E780F00C20148
:04135A00000300008C
:00000001FF
